{
  "_format": "hh-sol-artifact-1",
  "contractName": "CycleLink",
  "sourceName": "contracts/CycleLink.sol",
  "abi": [
    {
      "inputs": [],
      "stateMutability": "nonpayable",
      "type": "constructor"
    },
    {
      "inputs": [
        {
          "internalType": "address payable",
          "name": "walletAddress",
          "type": "address"
        },
        {
          "internalType": "string",
          "name": "firstName",
          "type": "string"
        },
        {
          "internalType": "string",
          "name": "lastName",
          "type": "string"
        },
        {
          "internalType": "bool",
          "name": "canRent",
          "type": "bool"
        },
        {
          "internalType": "bool",
          "name": "active",
          "type": "bool"
        },
        {
          "internalType": "uint256",
          "name": "balance",
          "type": "uint256"
        },
        {
          "internalType": "uint256",
          "name": "due",
          "type": "uint256"
        },
        {
          "internalType": "uint256",
          "name": "start",
          "type": "uint256"
        },
        {
          "internalType": "uint256",
          "name": "end",
          "type": "uint256"
        }
      ],
      "name": "addRenter",
      "outputs": [],
      "stateMutability": "nonpayable",
      "type": "function"
    },
    {
      "inputs": [],
      "name": "balanceOf",
      "outputs": [
        {
          "internalType": "uint256",
          "name": "",
          "type": "uint256"
        }
      ],
      "stateMutability": "view",
      "type": "function"
    },
    {
      "inputs": [
        {
          "internalType": "address",
          "name": "walletAddress",
          "type": "address"
        }
      ],
      "name": "balanceOfRenter",
      "outputs": [
        {
          "internalType": "uint256",
          "name": "",
          "type": "uint256"
        }
      ],
      "stateMutability": "view",
      "type": "function"
    },
    {
      "inputs": [
        {
          "internalType": "address",
          "name": "walletAddress",
          "type": "address"
        }
      ],
      "name": "canRentBike",
      "outputs": [
        {
          "internalType": "bool",
          "name": "",
          "type": "bool"
        }
      ],
      "stateMutability": "view",
      "type": "function"
    },
    {
      "inputs": [
        {
          "internalType": "address",
          "name": "walletAddress",
          "type": "address"
        }
      ],
      "name": "checkIn",
      "outputs": [],
      "stateMutability": "nonpayable",
      "type": "function"
    },
    {
      "inputs": [
        {
          "internalType": "address",
          "name": "walletAddress",
          "type": "address"
        }
      ],
      "name": "checkOut",
      "outputs": [],
      "stateMutability": "nonpayable",
      "type": "function"
    },
    {
      "inputs": [
        {
          "internalType": "address",
          "name": "walletAddress",
          "type": "address"
        }
      ],
      "name": "deposit",
      "outputs": [],
      "stateMutability": "payable",
      "type": "function"
    },
    {
      "inputs": [
        {
          "internalType": "address",
          "name": "walletAddress",
          "type": "address"
        }
      ],
      "name": "getDue",
      "outputs": [
        {
          "internalType": "uint256",
          "name": "",
          "type": "uint256"
        }
      ],
      "stateMutability": "view",
      "type": "function"
    },
    {
      "inputs": [],
      "name": "getOwnerBalance",
      "outputs": [
        {
          "internalType": "uint256",
          "name": "",
          "type": "uint256"
        }
      ],
      "stateMutability": "view",
      "type": "function"
    },
    {
      "inputs": [
        {
          "internalType": "address",
          "name": "walletAddress",
          "type": "address"
        }
      ],
      "name": "getRenter",
      "outputs": [
        {
          "internalType": "string",
          "name": "firstName",
          "type": "string"
        },
        {
          "internalType": "string",
          "name": "lastName",
          "type": "string"
        },
        {
          "internalType": "bool",
          "name": "canRent",
          "type": "bool"
        },
        {
          "internalType": "bool",
          "name": "active",
          "type": "bool"
        }
      ],
      "stateMutability": "view",
      "type": "function"
    },
    {
      "inputs": [
        {
          "internalType": "address",
          "name": "walletAddress",
          "type": "address"
        }
      ],
      "name": "getTotalDuration",
      "outputs": [
        {
          "internalType": "uint256",
          "name": "",
          "type": "uint256"
        }
      ],
      "stateMutability": "view",
      "type": "function"
    },
    {
      "inputs": [],
      "name": "isOwner",
      "outputs": [
        {
          "internalType": "bool",
          "name": "",
          "type": "bool"
        }
      ],
      "stateMutability": "view",
      "type": "function"
    },
    {
      "inputs": [
        {
          "internalType": "address",
          "name": "walletAddress",
          "type": "address"
        },
        {
          "internalType": "uint256",
          "name": "amount",
          "type": "uint256"
        }
      ],
      "name": "makePayment",
      "outputs": [],
      "stateMutability": "nonpayable",
      "type": "function"
    },
    {
      "inputs": [
        {
          "internalType": "address",
          "name": "walletAddress",
          "type": "address"
        }
      ],
      "name": "renterExists",
      "outputs": [
        {
          "internalType": "bool",
          "name": "",
          "type": "bool"
        }
      ],
      "stateMutability": "view",
      "type": "function"
    },
    {
      "inputs": [
        {
          "internalType": "address",
          "name": "",
          "type": "address"
        }
      ],
      "name": "renters",
      "outputs": [
        {
          "internalType": "address payable",
          "name": "walletAddress",
          "type": "address"
        },
        {
          "internalType": "string",
          "name": "firstName",
          "type": "string"
        },
        {
          "internalType": "string",
          "name": "lastName",
          "type": "string"
        },
        {
          "internalType": "bool",
          "name": "canRent",
          "type": "bool"
        },
        {
          "internalType": "bool",
          "name": "active",
          "type": "bool"
        },
        {
          "internalType": "uint256",
          "name": "balance",
          "type": "uint256"
        },
        {
          "internalType": "uint256",
          "name": "due",
          "type": "uint256"
        },
        {
          "internalType": "uint256",
          "name": "start",
          "type": "uint256"
        },
        {
          "internalType": "uint256",
          "name": "end",
          "type": "uint256"
        }
      ],
      "stateMutability": "view",
      "type": "function"
    },
    {
      "inputs": [],
      "name": "withdrawOwnerBalance",
      "outputs": [],
      "stateMutability": "payable",
      "type": "function"
    }
  ],
  "bytecode": "0x608060405234801561001057600080fd5b50336000806101000a81548173ffffffffffffffffffffffffffffffffffffffff021916908373ffffffffffffffffffffffffffffffffffffffff1602179055506126c1806100606000396000f3fe6080604052600436106100f35760003560e01c80638f32d59b1161008a578063d9a59e3311610059578063d9a59e331461034e578063f340fa0114610377578063f98cf07c14610393578063f9d8241c146103bc576100f3565b80638f32d59b1461029f578063941b80ac146102ca578063aad1b617146102d4578063c6d2a84614610311576100f3565b8063644a1370116100c6578063644a1370146101c65780636a4b27f41461020b578063722713f71461024b5780638d23caa014610276576100f3565b80630b88adbe146100f857806341ba6e8914610135578063590791f2146101725780635e6497271461019d575b600080fd5b34801561010457600080fd5b5061011f600480360381019061011a91906119f1565b6103f9565b60405161012c9190611a39565b60405180910390f35b34801561014157600080fd5b5061015c600480360381019061015791906119f1565b6104c2565b6040516101699190611a6d565b60405180910390f35b34801561017e57600080fd5b50610187610671565b6040516101949190611a6d565b60405180910390f35b3480156101a957600080fd5b506101c460048036038101906101bf9190611c64565b61070a565b005b3480156101d257600080fd5b506101ed60048036038101906101e891906119f1565b61088d565b60405161020299989796959493929190611df4565b60405180910390f35b34801561021757600080fd5b50610232600480360381019061022d91906119f1565b610a25565b6040516102429493929190611e8f565b60405180910390f35b34801561025757600080fd5b50610260610ce0565b60405161026d9190611a6d565b60405180910390f35b34801561028257600080fd5b5061029d600480360381019061029891906119f1565b610d77565b005b3480156102ab57600080fd5b506102b4611002565b6040516102c19190611a39565b60405180910390f35b6102d2611058565b005b3480156102e057600080fd5b506102fb60048036038101906102f691906119f1565b6110cb565b6040516103089190611a6d565b60405180910390f35b34801561031d57600080fd5b50610338600480360381019061033391906119f1565b611187565b6040516103459190611a6d565b60405180910390f35b34801561035a57600080fd5b50610375600480360381019061037091906119f1565b611243565b005b610391600480360381019061038c91906119f1565b6113f7565b005b34801561039f57600080fd5b506103ba60048036038101906103b59190611ee2565b6114c3565b005b3480156103c857600080fd5b506103e360048036038101906103de91906119f1565b6117e5565b6040516103f09190611a39565b60405180910390f35b6000818073ffffffffffffffffffffffffffffffffffffffff163373ffffffffffffffffffffffffffffffffffffffff161461046a576040517f08c379a000000000000000000000000000000000000000000000000000000000815260040161046190611f94565b60405180910390fd5b600260008473ffffffffffffffffffffffffffffffffffffffff1673ffffffffffffffffffffffffffffffffffffffff16815260200190815260200160002060030160009054906101000a900460ff16915050919050565b6000818073ffffffffffffffffffffffffffffffffffffffff163373ffffffffffffffffffffffffffffffffffffffff1614610533576040517f08c379a000000000000000000000000000000000000000000000000000000000815260040161052a90611f94565b60405180910390fd5b6000600260008573ffffffffffffffffffffffffffffffffffffffff1673ffffffffffffffffffffffffffffffffffffffff1681526020019081526020016000206006015414806105c657506000600260008573ffffffffffffffffffffffffffffffffffffffff1673ffffffffffffffffffffffffffffffffffffffff16815260200190815260200160002060070154145b156105d4576000915061066b565b6000610664600260008673ffffffffffffffffffffffffffffffffffffffff1673ffffffffffffffffffffffffffffffffffffffff16815260200190815260200160002060060154600260008773ffffffffffffffffffffffffffffffffffffffff1673ffffffffffffffffffffffffffffffffffffffff16815260200190815260200160002060070154611900565b9050809250505b50919050565b60008060009054906101000a900473ffffffffffffffffffffffffffffffffffffffff1673ffffffffffffffffffffffffffffffffffffffff163373ffffffffffffffffffffffffffffffffffffffff1614610702576040517f08c379a00000000000000000000000000000000000000000000000000000000081526004016106f990612026565b60405180910390fd5b600154905090565b6040518061012001604052808a73ffffffffffffffffffffffffffffffffffffffff1681526020018981526020018881526020018715158152602001861515815260200185815260200184815260200183815260200182815250600260008b73ffffffffffffffffffffffffffffffffffffffff1673ffffffffffffffffffffffffffffffffffffffff16815260200190815260200160002060008201518160000160006101000a81548173ffffffffffffffffffffffffffffffffffffffff021916908373ffffffffffffffffffffffffffffffffffffffff16021790555060208201518160010190816107ff9190612252565b5060408201518160020190816108159190612252565b5060608201518160030160006101000a81548160ff02191690831515021790555060808201518160030160016101000a81548160ff02191690831515021790555060a0820151816004015560c0820151816005015560e082015181600601556101008201518160070155905050505050505050505050565b60026020528060005260406000206000915090508060000160009054906101000a900473ffffffffffffffffffffffffffffffffffffffff16908060010180546108d690612075565b80601f016020809104026020016040519081016040528092919081815260200182805461090290612075565b801561094f5780601f106109245761010080835404028352916020019161094f565b820191906000526020600020905b81548152906001019060200180831161093257829003601f168201915b50505050509080600201805461096490612075565b80601f016020809104026020016040519081016040528092919081815260200182805461099090612075565b80156109dd5780601f106109b2576101008083540402835291602001916109dd565b820191906000526020600020905b8154815290600101906020018083116109c057829003601f168201915b5050505050908060030160009054906101000a900460ff16908060030160019054906101000a900460ff16908060040154908060050154908060060154908060070154905089565b606080600080848073ffffffffffffffffffffffffffffffffffffffff163373ffffffffffffffffffffffffffffffffffffffff1614610a9a576040517f08c379a0000000000000000000000000000000000000000000000000000000008152600401610a9190611f94565b60405180910390fd5b600260008773ffffffffffffffffffffffffffffffffffffffff1673ffffffffffffffffffffffffffffffffffffffff1681526020019081526020016000206001018054610ae790612075565b80601f0160208091040260200160405190810160405280929190818152602001828054610b1390612075565b8015610b605780601f10610b3557610100808354040283529160200191610b60565b820191906000526020600020905b815481529060010190602001808311610b4357829003601f168201915b50505050509450600260008773ffffffffffffffffffffffffffffffffffffffff1673ffffffffffffffffffffffffffffffffffffffff1681526020019081526020016000206002018054610bb490612075565b80601f0160208091040260200160405190810160405280929190818152602001828054610be090612075565b8015610c2d5780601f10610c0257610100808354040283529160200191610c2d565b820191906000526020600020905b815481529060010190602001808311610c1057829003601f168201915b50505050509350600260008773ffffffffffffffffffffffffffffffffffffffff1673ffffffffffffffffffffffffffffffffffffffff16815260200190815260200160002060030160009054906101000a900460ff169250600260008773ffffffffffffffffffffffffffffffffffffffff1673ffffffffffffffffffffffffffffffffffffffff16815260200190815260200160002060030160019054906101000a900460ff169150509193509193565b60008060009054906101000a900473ffffffffffffffffffffffffffffffffffffffff1673ffffffffffffffffffffffffffffffffffffffff163373ffffffffffffffffffffffffffffffffffffffff1614610d71576040517f08c379a0000000000000000000000000000000000000000000000000000000008152600401610d6890612026565b60405180910390fd5b47905090565b808073ffffffffffffffffffffffffffffffffffffffff163373ffffffffffffffffffffffffffffffffffffffff1614610de6576040517f08c379a0000000000000000000000000000000000000000000000000000000008152600401610ddd90611f94565b60405180910390fd5b6000600260008473ffffffffffffffffffffffffffffffffffffffff1673ffffffffffffffffffffffffffffffffffffffff1681526020019081526020016000206005015414610e6b576040517f08c379a0000000000000000000000000000000000000000000000000000000008152600401610e6290612370565b60405180910390fd5b60011515600260008473ffffffffffffffffffffffffffffffffffffffff1673ffffffffffffffffffffffffffffffffffffffff16815260200190815260200160002060030160009054906101000a900460ff16151514610f01576040517f08c379a0000000000000000000000000000000000000000000000000000000008152600401610ef8906123dc565b60405180910390fd5b6001600260008473ffffffffffffffffffffffffffffffffffffffff1673ffffffffffffffffffffffffffffffffffffffff16815260200190815260200160002060030160016101000a81548160ff02191690831515021790555042600260008473ffffffffffffffffffffffffffffffffffffffff1673ffffffffffffffffffffffffffffffffffffffff168152602001908152602001600020600601819055506000600260008473ffffffffffffffffffffffffffffffffffffffff1673ffffffffffffffffffffffffffffffffffffffff16815260200190815260200160002060030160006101000a81548160ff0219169083151502179055505050565b60003373ffffffffffffffffffffffffffffffffffffffff1660008054906101000a900473ffffffffffffffffffffffffffffffffffffffff1673ffffffffffffffffffffffffffffffffffffffff1614905090565b60008054906101000a900473ffffffffffffffffffffffffffffffffffffffff1673ffffffffffffffffffffffffffffffffffffffff166108fc6001549081150290604051600060405180830381858888f193505050501580156110c0573d6000803e3d6000fd5b506000600181905550565b6000818073ffffffffffffffffffffffffffffffffffffffff163373ffffffffffffffffffffffffffffffffffffffff161461113c576040517f08c379a000000000000000000000000000000000000000000000000000000000815260040161113390611f94565b60405180910390fd5b600260008473ffffffffffffffffffffffffffffffffffffffff1673ffffffffffffffffffffffffffffffffffffffff16815260200190815260200160002060040154915050919050565b6000818073ffffffffffffffffffffffffffffffffffffffff163373ffffffffffffffffffffffffffffffffffffffff16146111f8576040517f08c379a00000000000000000000000000000000000000000000000000000000081526004016111ef90611f94565b60405180910390fd5b600260008473ffffffffffffffffffffffffffffffffffffffff1673ffffffffffffffffffffffffffffffffffffffff16815260200190815260200160002060050154915050919050565b808073ffffffffffffffffffffffffffffffffffffffff163373ffffffffffffffffffffffffffffffffffffffff16146112b2576040517f08c379a00000000000000000000000000000000000000000000000000000000081526004016112a990611f94565b60405180910390fd5b60011515600260008473ffffffffffffffffffffffffffffffffffffffff1673ffffffffffffffffffffffffffffffffffffffff16815260200190815260200160002060030160019054906101000a900460ff16151514611348576040517f08c379a000000000000000000000000000000000000000000000000000000000815260040161133f90612448565b60405180910390fd5b6000600260008473ffffffffffffffffffffffffffffffffffffffff1673ffffffffffffffffffffffffffffffffffffffff16815260200190815260200160002060030160016101000a81548160ff02191690831515021790555042600260008473ffffffffffffffffffffffffffffffffffffffff1673ffffffffffffffffffffffffffffffffffffffff168152602001908152602001600020600701819055506113f382611916565b5050565b808073ffffffffffffffffffffffffffffffffffffffff163373ffffffffffffffffffffffffffffffffffffffff1614611466576040517f08c379a000000000000000000000000000000000000000000000000000000000815260040161145d90611f94565b60405180910390fd5b34600260008473ffffffffffffffffffffffffffffffffffffffff1673ffffffffffffffffffffffffffffffffffffffff16815260200190815260200160002060040160008282546114b89190612497565b925050819055505050565b818073ffffffffffffffffffffffffffffffffffffffff163373ffffffffffffffffffffffffffffffffffffffff1614611532576040517f08c379a000000000000000000000000000000000000000000000000000000000815260040161152990611f94565b60405180910390fd5b6000600260008573ffffffffffffffffffffffffffffffffffffffff1673ffffffffffffffffffffffffffffffffffffffff16815260200190815260200160002060050154116115b7576040517f08c379a00000000000000000000000000000000000000000000000000000000081526004016115ae9061253d565b60405180910390fd5b81600260008573ffffffffffffffffffffffffffffffffffffffff1673ffffffffffffffffffffffffffffffffffffffff168152602001908152602001600020600401541161163b576040517f08c379a0000000000000000000000000000000000000000000000000000000008152600401611632906125f5565b60405180910390fd5b81600260008573ffffffffffffffffffffffffffffffffffffffff1673ffffffffffffffffffffffffffffffffffffffff168152602001908152602001600020600401600082825461168d9190612615565b9250508190555081600160008282546116a69190612497565b925050819055506001600260008573ffffffffffffffffffffffffffffffffffffffff1673ffffffffffffffffffffffffffffffffffffffff16815260200190815260200160002060030160006101000a81548160ff0219169083151502179055506000600260008573ffffffffffffffffffffffffffffffffffffffff1673ffffffffffffffffffffffffffffffffffffffff168152602001908152602001600020600501819055506000600260008573ffffffffffffffffffffffffffffffffffffffff1673ffffffffffffffffffffffffffffffffffffffff168152602001908152602001600020600601819055506000600260008573ffffffffffffffffffffffffffffffffffffffff1673ffffffffffffffffffffffffffffffffffffffff16815260200190815260200160002060070181905550505050565b6000818073ffffffffffffffffffffffffffffffffffffffff163373ffffffffffffffffffffffffffffffffffffffff1614611856576040517f08c379a000000000000000000000000000000000000000000000000000000000815260040161184d90611f94565b60405180910390fd5b600073ffffffffffffffffffffffffffffffffffffffff16600260008573ffffffffffffffffffffffffffffffffffffffff1673ffffffffffffffffffffffffffffffffffffffff16815260200190815260200160002060000160009054906101000a900473ffffffffffffffffffffffffffffffffffffffff1673ffffffffffffffffffffffffffffffffffffffff16146118f557600191506118fa565b600091505b50919050565b6000828261190e9190612615565b905092915050565b6000611921826104c2565b90506509184e72a000816119359190612649565b600260008473ffffffffffffffffffffffffffffffffffffffff1673ffffffffffffffffffffffffffffffffffffffff168152602001908152602001600020600501819055505050565b6000604051905090565b600080fd5b600080fd5b600073ffffffffffffffffffffffffffffffffffffffff82169050919050565b60006119be82611993565b9050919050565b6119ce816119b3565b81146119d957600080fd5b50565b6000813590506119eb816119c5565b92915050565b600060208284031215611a0757611a06611989565b5b6000611a15848285016119dc565b91505092915050565b60008115159050919050565b611a3381611a1e565b82525050565b6000602082019050611a4e6000830184611a2a565b92915050565b6000819050919050565b611a6781611a54565b82525050565b6000602082019050611a826000830184611a5e565b92915050565b6000611a9382611993565b9050919050565b611aa381611a88565b8114611aae57600080fd5b50565b600081359050611ac081611a9a565b92915050565b600080fd5b600080fd5b6000601f19601f8301169050919050565b7f4e487b7100000000000000000000000000000000000000000000000000000000600052604160045260246000fd5b611b1982611ad0565b810181811067ffffffffffffffff82111715611b3857611b37611ae1565b5b80604052505050565b6000611b4b61197f565b9050611b578282611b10565b919050565b600067ffffffffffffffff821115611b7757611b76611ae1565b5b611b8082611ad0565b9050602081019050919050565b82818337600083830152505050565b6000611baf611baa84611b5c565b611b41565b905082815260208101848484011115611bcb57611bca611acb565b5b611bd6848285611b8d565b509392505050565b600082601f830112611bf357611bf2611ac6565b5b8135611c03848260208601611b9c565b91505092915050565b611c1581611a1e565b8114611c2057600080fd5b50565b600081359050611c3281611c0c565b92915050565b611c4181611a54565b8114611c4c57600080fd5b50565b600081359050611c5e81611c38565b92915050565b60008060008060008060008060006101208a8c031215611c8757611c86611989565b5b6000611c958c828d01611ab1565b99505060208a013567ffffffffffffffff811115611cb657611cb561198e565b5b611cc28c828d01611bde565b98505060408a013567ffffffffffffffff811115611ce357611ce261198e565b5b611cef8c828d01611bde565b9750506060611d008c828d01611c23565b9650506080611d118c828d01611c23565b95505060a0611d228c828d01611c4f565b94505060c0611d338c828d01611c4f565b93505060e0611d448c828d01611c4f565b925050610100611d568c828d01611c4f565b9150509295985092959850929598565b611d6f81611a88565b82525050565b600081519050919050565b600082825260208201905092915050565b60005b83811015611daf578082015181840152602081019050611d94565b60008484015250505050565b6000611dc682611d75565b611dd08185611d80565b9350611de0818560208601611d91565b611de981611ad0565b840191505092915050565b600061012082019050611e0a600083018c611d66565b8181036020830152611e1c818b611dbb565b90508181036040830152611e30818a611dbb565b9050611e3f6060830189611a2a565b611e4c6080830188611a2a565b611e5960a0830187611a5e565b611e6660c0830186611a5e565b611e7360e0830185611a5e565b611e81610100830184611a5e565b9a9950505050505050505050565b60006080820190508181036000830152611ea98187611dbb565b90508181036020830152611ebd8186611dbb565b9050611ecc6040830185611a2a565b611ed96060830184611a2a565b95945050505050565b60008060408385031215611ef957611ef8611989565b5b6000611f07858286016119dc565b9250506020611f1885828601611c4f565b9150509250929050565b7f596f752063616e206f6e6c79206d616e61676520796f7572206163636f756e7460008201527f2e00000000000000000000000000000000000000000000000000000000000000602082015250565b6000611f7e602183611d80565b9150611f8982611f22565b604082019050919050565b60006020820190508181036000830152611fad81611f71565b9050919050565b7f596f7520617265206e6f7420616c6c6f77656420746f2061636365737320746860008201527f69732e0000000000000000000000000000000000000000000000000000000000602082015250565b6000612010602383611d80565b915061201b82611fb4565b604082019050919050565b6000602082019050818103600083015261203f81612003565b9050919050565b7f4e487b7100000000000000000000000000000000000000000000000000000000600052602260045260246000fd5b6000600282049050600182168061208d57607f821691505b6020821081036120a05761209f612046565b5b50919050565b60008190508160005260206000209050919050565b60006020601f8301049050919050565b600082821b905092915050565b6000600883026121087fffffffffffffffffffffffffffffffffffffffffffffffffffffffffffffffff826120cb565b61211286836120cb565b95508019841693508086168417925050509392505050565b6000819050919050565b600061214f61214a61214584611a54565b61212a565b611a54565b9050919050565b6000819050919050565b61216983612134565b61217d61217582612156565b8484546120d8565b825550505050565b600090565b612192612185565b61219d818484612160565b505050565b5b818110156121c1576121b660008261218a565b6001810190506121a3565b5050565b601f821115612206576121d7816120a6565b6121e0846120bb565b810160208510156121ef578190505b6122036121fb856120bb565b8301826121a2565b50505b505050565b600082821c905092915050565b60006122296000198460080261220b565b1980831691505092915050565b60006122428383612218565b9150826002028217905092915050565b61225b82611d75565b67ffffffffffffffff81111561227457612273611ae1565b5b61227e8254612075565b6122898282856121c5565b600060209050601f8311600181146122bc57600084156122aa578287015190505b6122b48582612236565b86555061231c565b601f1984166122ca866120a6565b60005b828110156122f2578489015182556001820191506020850194506020810190506122cd565b8683101561230f578489015161230b601f891682612218565b8355505b6001600288020188555050505b505050505050565b7f596f75206861766520612070656e64696e672062616c616e63652e0000000000600082015250565b600061235a601b83611d80565b915061236582612324565b602082019050919050565b600060208201905081810360008301526123898161234d565b9050919050565b7f596f752063616e6e6f742072656e7420617420746869732074696d652e000000600082015250565b60006123c6601d83611d80565b91506123d182612390565b602082019050919050565b600060208201905081810360008301526123f5816123b9565b9050919050565b7f506c6561736520636865636b206f757420612062696b652066697273742e0000600082015250565b6000612432601e83611d80565b915061243d826123fc565b602082019050919050565b6000602082019050818103600083015261246181612425565b9050919050565b7f4e487b7100000000000000000000000000000000000000000000000000000000600052601160045260246000fd5b60006124a282611a54565b91506124ad83611a54565b92508282019050808211156124c5576124c4612468565b5b92915050565b7f596f7520646f206e6f74206861766520616e797468696e67206475652061742060008201527f746869732074696d652e00000000000000000000000000000000000000000000602082015250565b6000612527602a83611d80565b9150612532826124cb565b604082019050919050565b600060208201905081810360008301526125568161251a565b9050919050565b7f596f7520646f206e6f74206861766520656e6f7567682066756e647320746f2060008201527f636f766572207061796d656e742e20506c65617365206d616b6520612064657060208201527f6f7369742e000000000000000000000000000000000000000000000000000000604082015250565b60006125df604583611d80565b91506125ea8261255d565b606082019050919050565b6000602082019050818103600083015261260e816125d2565b9050919050565b600061262082611a54565b915061262b83611a54565b925082820390508181111561264357612642612468565b5b92915050565b600061265482611a54565b915061265f83611a54565b925082820261266d81611a54565b9150828204841483151761268457612683612468565b5b509291505056fea26469706673582212201ba60e8ad798328c8737a0e2324ad88932587e18225f8d447e34b902bd4ca9f964736f6c63430008180033",
  "linkReferences": {},
  "deployedLinkReferences": {}
}